:100000000C9434000C943E000C943E000C943E0082
:100010000C943E000C943E000C943E000C943E0068
:100020000C943E000C943E000C943E000C943E0058
:100030000C943E000C943E000C943E000C943E0048
:100040000C943E000C943E000C943E000C943E0038
:100050000C943E000C943E000C943E000C943E0028
:100060000C943E000C943E0011241FBECFEFD8E04C
:10007000DEBFCDBF0E94CB000C9405020C940000A3
:10008000299A85ED8A95F1F700002998089595B190
:10009000937C95B984FD2A9A85FD2B9A86FD2C9A2E
:1000A00087FD2D9A299A85ED8A95F1F70000299808
:1000B0000895CF93C82F0E9447008C2F8295807F90
:1000C0000E9447002D98CF91089528980C945900CC
:1000D000289A0C945900289883E30E945900289884
:1000E00082E30E945900289888E20E9459002898CB
:1000F0008CE00E945900289886E00E9459002898B8
:1001000081E00E9459008FED9EE20197F1F700C057
:1001100000000895289881E00E9459008FED9EE22A
:100120000197F1F700C000000895CF93DF93EC0131
:100130008881882339F02196289A0E945900899154
:100140008111FACFDF91CF910895CF93DF93CDB78F
:10015000DEB728970FB6F894DEBF0FBECDBF1A8268
:100160001982FE01339626E0DF011D922A95E9F7F8
:100170004AE0BE016F5F7F4F0E94D001CE01019621
:100180000E94950028960FB6F894DEBF0FBECDBF33
:10019000DF91CF9108958FEF84B90E946B00589A38
:1001A000599A5A9A5B9A5C9A5D9A5E9A5F9A409ABB
:1001B000419A429A439A449A459A289881E00E942B
:1001C00059008FED9EE20197F1F700C0000033C0A7
:1001D000499B42C04A9B4FC04B9B5CC04C9B69C033
:1001E0004D9B76C04E9B83C04F990DC087E090E039
:1001F0000E94A5009FEF27E883E1915020408040B6
:10020000E1F700C00000309B9AC0319B7EC0329B5A
:100210008BC0349902C0489BA0C0349902C0499B4E
:10022000AAC0349902C04A9BABC0349902C04B9B10
:10023000ACC0359BB0C04899CBCF80E090E00E9425
:10024000A5009FEF27E883E1915020408040E1F72F
:1002500000C000004999BECF81E090E00E94A50057
:100260009FEF27E883E1915020408040E1F700C0F4
:1002700000004A99B1CF82E090E00E94A5009FEF74
:1002800027E883E1915020408040E1F700C0000062
:100290004B99A4CF83E090E00E94A5009FEF27E850
:1002A00083E1915020408040E1F700C000004C996C
:1002B00097CF84E090E00E94A5009FEF27E883E1BC
:1002C000915020408040E1F700C000004D998ACF56
:1002D00085E090E00E94A5009FEF27E883E1915020
:1002E00020408040E1F700C000004E997DCF86E0BD
:1002F00090E00E94A5009FEF27E883E19150204005
:100300008040E1F700C000006FCF89E090E00E94DC
:10031000A5009FEF27E883E1915020408040E1F75E
:1003200000C00000329975CF289881E00E945900E2
:100330008FED9EE20197F1F700C000006ACF88E0E0
:1003400090E00E94A5009FEF27E883E191502040B4
:100350008040E1F700C0000058CF8BE290E00E949F
:1003600095009FEF27E883E1915020408040E1F71E
:1003700000C0000052CF8DE290E00E94950051CF66
:1003800088E590E00E94950050CF8FE290E00E94B7
:100390009500359950CF8EE290E00E9495004BCFAA
:1003A000BB274A3031F4992322F4BDE29095819520
:1003B0009F4F0C94DC01BB27FB015527AA27880F10
:1003C000991FAA1FA41710F0A41B83955051B9F7C9
:1003D000A05DAA3308F0A95DA193009779F7B11148
:1003E000B1931192CB010C94F501DC01FC01672F54
:1003F00071917723E1F7329704C07C916D937083FC
:0E0400006291AE17BF07C8F30895F894FFCFBE
:00000001FF
