:100000000C9443000C9460000C9460000C9460000D
:100010000C9460000C9460000C9460000C946000E0
:100020000C9460000C9460000C9460000C946000D0
:100030000C9460000C9460000C9460000C946000C0
:100040000C9460000C9460000C9460000C946000B0
:100050000C9460000C9460000C9460000C946000A0
:100060000C9460000C94600005A84CCDB2D44EB93D
:100070003836A9020C50B9918688083CA6AAAA2A4B
:10008000BE000000803F11241FBECFEFD8E0DEBFCE
:10009000CDBF11E0A0E0B1E0E0E5F6E202C00590DE
:1000A0000D92AA30B107D9F721E0AAE0B1E001C072
:1000B0001D92AF32B207E1F70E94260D0C94261371
:1000C0000C940000299A85ED8A95F1F70000299893
:1000D000089595B1937C95B984FD2A9A85FD2B9A54
:1000E00086FD2C9A87FD2D9A299A85ED8A95F1F740
:1000F000000029980895CF93C82F0E9469008C2F83
:100100008295807F0E9469002D98CF91089528984C
:100110000C947B00289A0C947B00289883E30E941F
:100120007B00289882E30E947B00289888E20E9446
:100130007B0028988CE00E947B00289886E00E9433
:100140007B00289881E00E947B008FED9EE2019762
:10015000F1F700C000000895289881E00E947B001C
:100160008FED9EE20197F1F700C000000895CF9354
:10017000DF93EC018881882339F02196289A0E9428
:100180007B0089918111FACFDF91CF910895CF93B0
:10019000DF93CDB7DEB728970FB6F894DEBF0FBE5A
:1001A000CDBF1A821982FE01339626E0DF011D922F
:1001B0002A95E9F74AE0BE016F5F7F4F0E94E9127E
:1001C000CE0101960E94B70028960FB6F894DEBFC4
:1001D0000FBECDBFDF91CF9108952F923F924F92E6
:1001E0005F926F927F928F929F92AF92BF92CF92C7
:1001F000DF92EF92FF920F931F93CF93DF93CDB7D0
:10020000DEB72F970FB6F894DEBF0FBECDBF6B835E
:100210007C838D839E8321E0298320E030E0A90147
:100220000E94311087FD5BC181E039813827398315
:10023000432F50E058874F83332349F08B819C81B3
:10024000AD81BE81B0588B839C83AD83BE836B81AF
:100250007C818D819E810E940A0F6D877F87182F78
:10026000092F9B01482F592FA12CB12CAAE04A2E0F
:10027000512C612C712C01C0560165019FEFC91AE8
:10028000D90ACA01B901A30192010E945511211591
:1002900031054105510581F72CEA35EC47E257E37A
:1002A0006B817C818D819E810E94220E69877A8775
:1002B0008B879C876D857F85812F902F0E94420FB1
:1002C0009B01AC0169857A858B859C850E94210EF6
:1002D00020E030E048EF55EC0E9436100E940A0FF3
:1002E0002B013C0120E03FE140E050E00E9455112D
:1002F000672B682B692B09F4F4C0E12CE1EEFE2E8C
:10030000212C312CFAE08F2E912CC701B4010E94D0
:1003100041117B01AFEF2A1A3A0A9B01770F440B78
:10032000550BC301B2010E945511672B682B692B35
:1003300061F7B981B111C8C0C50102960E94AA1126
:100340009A8389838F8098848C0C9D1CE981FA8123
:10035000E80DF91D2114310409F0B4C080E0808358
:100360007F01C4018C199D09C980DA80C80ED91E8D
:100370007AE0472E512C612C712C6D857F85812F61
:10038000902FA30192010E945511605DF7016293C5
:100390007F01B901CA01EC15FD0599F7211431045B
:1003A00009F475C080E090E021E030E03E872D87C1
:1003B0002D853E85220F331F4D855E85440F551FC9
:1003C000440F551F440F551F420F531F5E874D8723
:1003D00001968215930564F36B817C818D819E81EA
:1003E0000E940A0F072E000C880B990B0E94420FE7
:1003F0009B01AC0169857A858B859C850E94210EC5
:100400006B017C01AD85BE85BD01BB0F880B990BCF
:100410000E94420F9B01AC01C701B6010E94361039
:100420000E940A0F072E000C880B990B85010E5FA6
:100430001F4FEF81F8850E0F1F1F020D131D29811D
:100440003A81020F131F1C821B822AE0C22ED12C7C
:10045000E12CF12C4B815C814F5F5F4F5C834B83C0
:10046000A70196010E945511605DD8016E938D0120
:10047000B901CA01EB81FC81E215F3055CF3298126
:100480003A81220E331EF101E80DF91D1182898196
:100490009A812F960FB6F894DEBF0FBECDBFDF91C5
:1004A000CF911F910F91FF90EF90DF90CF90BF9071
:1004B000AF909F908F907F906F905F904F903F9004
:1004C0002F9008958EE24BCFC50103960E94AA118A
:1004D0009A8389838DE2A981BA818C9333CF198263
:1004E000A3CE212C312C25CF20ED280F81E090E0E8
:1004F0002A3010F080E090E008952F923F924F92C2
:100500005F926F927F928F929F92AF92BF92CF92A3
:10051000DF92EF92FF920F931F93CF93DF9300D060
:1005200000D000D0CDB7DEB76C011B01FB016080AD
:1005300071807C01E60CF71CF70180818D3209F493
:10054000CBC020E030E040E85FE329833A834B836F
:100550005C83882309F4D4C090ED980F9A3008F09A
:100560005FC0C30101969E838D838C010C0D1D1D00
:10057000812C912C54010BC090ED980F9A3008F00B
:1005800052C04D815E814F5F5F4F5E834D8320E09F
:1005900030E040E251E4C501B4010E9436104B0145
:1005A0005C016D807E80F10171826082F701608163
:1005B000062E000C770B60537109072E000C880B78
:1005C000990B0E94420FA50194010E94220E4B013B
:1005D0005C017801F80181918F018111CDCFA501D6
:1005E000940169817A818B819C810E9436102696C4
:1005F0000FB6F894DEBF0FBECDBFDF91CF911F9134
:100600000F91FF90EF90DF90CF90BF90AF909F90B1
:100610008F907F906F905F904F903F902F900895B4
:10062000812C912C54018E32D1F693012F5F3F4FD4
:10063000F101318320832C0D3D1D3E832D83F90173
:10064000808180538A3058F67301F2E0EF0EF11C7E
:1006500086010E0D1F1D412C512C80E2682E81E475
:10066000782EE21AF30AC8018C199D09F1019183D1
:100670008083ED81FE816081062E000C770B605334
:100680007109072E000C880B990B0E94420FA301E1
:1006900092010E94980E9B01AC01C501B4010E9419
:1006A000220E4B015C0120E030E040E251E4C30146
:1006B000B2010E9436102B013C012D813E812E0D8E
:1006C0003F1D2C0D3D1D3E832D83F80181918F012F
:1006D00080538A3040F283CFFFEF6F1A7F0AFB010D
:1006E000718260827601E60CF71CF701808120E0C0
:1006F00030E040E85FEB29833A834B835C8329CF6A
:10070000812C912C54016BCF0E94ED000C94B7000A
:100710008FEF84B91AB887B98BB9089518B888EFE4
:100720008BB94B9918C08EE088B988B188B94B9BBA
:100730004AC08DE088B988B188B94B9B62C08BE014
:1007400088B988B188B94B9B62C087E088B988B105
:1007500088B94B9B6CC04C991AC08EE088B988B19F
:1007600088B94C9B50C08DE088B988B188B94C9B42
:100770005AC08BE088B988B188B94C9B66C087E0C5
:1007800088B988B188B94C9940C08BE208954D99D9
:100790001CC08EE088B988B188B94D9B46C08DE0F9
:1007A00088B988B188B94D9B52C08BE088B988B1AF
:1007B00088B94D9B48C087E088B988B188B94D9900
:1007C00024C08DE208958EE208954E9922C08EE0F5
:1007D00088B988B188B94E9B2CC08DE088B988B1A2
:1007E00088B94E9B36C08BE088B988B188B94E9BDA
:1007F00032C087E088B988B188B94E9906C08AE2CC
:10080000089583E7089581E308958EE608958FE6BD
:1008100008954F99FACF8EE088B988B188B94F9979
:100820000AC08DE3089582E3089584E3089582E782
:10083000089587E308958DE088B988B188B94F9904
:100840000CC080E3089586E3089583E3089585E36B
:10085000089588E3089589E308958BE088B988B105
:1008600088B94F9902C083E6089587E088B988B1B6
:1008700088B94F99CACF8FE208958EE680932601FA
:100880000E948E03809326018E36D1F30895109234
:100890001C0110921D0110921E0110921F01109256
:1008A0002701109228011092290110922A0110921A
:1008B0002101109222011092230110922401109222
:1008C0001B0110921A0180E090E0A0E8BFE3809342
:1008D000000190930101A0930201B09303011092D3
:1008E0000B0110920A011092190110921801109236
:1008F00015011092140110920E0110920F01109226
:100900001001109211011092130110921201109215
:100910000D0110920C01109217011092160108950A
:10092000809125018B32D9F18D32F1F08A3209F0B4
:1009300051C0209121013091220140912301509119
:1009400024016091270170912801809129019091E3
:100950002A010E94361060931C0170931D01809340
:100960001E0190931F0108952091210130912201D1
:100970004091230150912401609127017091280139
:100980008091290190912A010E94210E60931C01FF
:1009900070931D0180931E0190931F010895209173
:1009A0002101309122014091230150912401609155
:1009B0002701709128018091290190912A010E94BC
:1009C000220E60931C0170931D0180931E01909371
:1009D0001F0108958F32D1F420912101309122011D
:1009E00040912301509124016091270170912801C9
:1009F0008091290190912A010E94980E60931C0118
:100A000070931D0180931E0190931F0108952898F3
:100A100080E10E947B00289A80E20E947B00289857
:100A200080E10C947B008F929F92AF92BF92CF9205
:100A3000DF92EF92FF920F931F93CF93DF93DEE647
:100A4000C12CD12C80E8E82E8FE3F82E01E010E0D5
:100A5000D09326010E948E03C82F809326018E36E4
:100A6000C9F380910A0190910B01009709F0BEC073
:100A7000C13309F4A8C1C43309F4C8C1C73309F0AC
:100A800022C280911601909117010196909317014F
:100A90008093160180901C0190901D01A0901E0172
:100AA000B0901F0120E030E0A901C501B4010E940F
:100AB0008E0E811145C280E090E0A0EEB0E48093FC
:100AC0001C0190931D01A0931E01B0931F01CA3217
:100AD00009F0BEC210920B0110920A01C0920001EF
:100AE000D0920101E0920201F092030110931901EA
:100AF0000093180110920D0110920C011092170131
:100B000010921601C093250180911A0190911B014A
:100B1000892B09F0BEC080911C0190911D01A0910C
:100B20001E01B0911F018093270190932801A0938B
:100B30002901B0932A0110931B0100931A01C0935D
:100B4000200110921C0110921D0110921E011092A2
:100B50001F01CD3309F090C080911C0190911D01BF
:100B6000A0911E01B0911F01809321019093220159
:100B7000A0932301B0932401289880EC0E947B006D
:100B80000E94900460911C0170911D0180911E01D2
:100B900090911F010E94ED000E94B7009FEF2DE28F
:100BA00082E2915020408040E1F700C00000D093E5
:100BB00026010E948E03C82F809326018E36C9F32A
:100BC000289881E00E947B008FED9EE20197F1F76B
:100BD00000C000000E9447048EE98C0F823008F4A8
:100BE00037CF289A8C2F0E947B0032CFCE3209F467
:100BF000AAC0C13309F4B1C0C23309F02EC1C090FC
:100C00000001D0900101E0900201F09003012DEC71
:100C10003CEC4CE45EE3C701B6010E9436109B0138
:100C2000AC0160911C0170911D0180911E01909199
:100C30001F010E94220E60931C0170931D0180937E
:100C40001E0190931F012DEC3CEC4CEC5DE3C701C1
:100C5000B6010E94361060930001709301018093E9
:100C6000020190930301809112019091130101966A
:100C70009093130180931201DF91CF911F910F91F7
:100C8000FF90EF90DF90CF90BF90AF909F908F90AC
:100C9000089520911C0130911D0140911E01509139
:100CA0001F0120932101309322014093230150938F
:100CB0002401809120018B3209F4F2C08D3209F4B5
:100CC000DCC08A3209F080C160912701709128014F
:100CD0008091290190912A010E94361060931C0195
:100CE00070931D0180931E0190931F01289881E04D
:100CF0000E947B008FED9EE20197F1F700C000009B
:100D000060911C0170911D0180911E0190911F0145
:100D10000E94ED000E94B700289A8C2F0E947B0051
:100D200080911C0190911D01A0911E01B0911F01A5
:100D30008093270190932801A0932901B0932A0161
:100D4000C0932001FECE019690930B0180930A017F
:100D500010921301109212018FCF2DEC3CEC4CEC51
:100D60005DE3609100017091010180910201909119
:100D700003010E9436106B017C019B01AC01609164
:100D80001C0170911D0180911E0190911F010E9414
:100D9000220E60931C0170931D0180931E0190939D
:100DA0001F01C0920001D0920101E0920201F09275
:100DB0000301809112019091130101969093130108
:100DC0008093120159CF80911601909117010196DD
:100DD000909317018093160180901C0190901D0143
:100DE000A0901E01B0901F0120E030E0A901C501D4
:100DF000B4010E948E0E81118CC0C0921C01D09251
:100E00001D01E0921E01F0921F0161CE809116013A
:100E1000909117010196909317018093160180908D
:100E20001C0190901D01A0901E01B0901F0120E0B8
:100E300030E0A901C501B4010E948E0E811197C056
:100E400080E090E0A0E8B0E480931C0190931D0145
:100E5000A0931E01B0931F013ACEC33309F0CAC05C
:100E6000C0900001D0900101E0900201F0900301D8
:100E70002AE939E949E95EE3CECE60912701709114
:100E800028018091290190912A010E94210E6093EE
:100E90001C0170931D0180931E0190931F0126CFAA
:100EA00060912701709128018091290190912A0178
:100EB0000E94220E60931C0170931D0180931E01FD
:100EC00090931F0113CFC03309F0C6C08091160163
:100ED00090911701019690931701809316018090CD
:100EE0001C0190901D01A0901E01B0901F0120E0F8
:100EF00030E0A901C501B4010E948E0E81114EC0DF
:100F000010921C0110921D0110921E0110921F01DF
:100F1000DECD20E030E040E251E4C501B4010E94A2
:100F2000361020E030E040E85FE30E94220E60933C
:100F30001C0170931D0180931E0190931F01C7CD6A
:100F400020E030E040E251E4C501B4010E943610D7
:100F500020E030E040EE50E40E94220E60931C013D
:100F600070931D0180931E0190931F01B0CD20E06E
:100F700030E040E251E4C501B4010E94361020E0A7
:100F800030E040E850E40E94220E60931C01709310
:100F90001D0180931E0190931F0199CD20E030E048
:100FA00040E251E4C501B4010E94361020E030E077
:100FB000A9010E94220E60931C0170931D01809371
:100FC0001E0190931F0183CD8F3209F08FCE609167
:100FD0002701709128018091290190912A010E9496
:100FE000980E60931C0170931D0180931E019093D5
:100FF0001F017CCEC43369F4C0900001D090010180
:10100000E0900201F09003012DEC3CEC4CEC5EE32F
:1010100002CEC53369F4C0900001D0900101E09088
:101020000201F090030120E030E040E05FE3F3CD07
:10103000C63309F012C1C0900001D0900101E090C8
:101040000201F09003012AE939E949E15FE3E3CDC8
:10105000CF3209F43FCD7DCDC23339F580911601F1
:10106000909117010196909317018093160180903B
:101070001C0190901D01A0901E01B0901F0120E066
:1010800030E0A901C501B4010E948E0E811189C012
:1010900080E090E0A0E0B0E480931C0190931D01FB
:1010A000A0931E01B0931F0112CDC53339F5809175
:1010B00016019091170101969093170180931601E4
:1010C00080901C0190901D01A0901E01B0901F0106
:1010D00020E030E0A901C501B4010E948E0E81110B
:1010E00077C080E090E0A0EAB0E480931C01909388
:1010F0001D01A0931E01B0931F01E9CCC83339F53F
:101100008091160190911701019690931701809399
:10111000160180901C0190901D01A0901E01B090BE
:101120001F0120E030E0A901C501B4010E948E0E2C
:10113000811165C080E090E0A0E0B1E480931C01E3
:1011400090931D01A0931E01B0931F01C0CCC33327
:1011500009F093C080911601909117010196909328
:1011600017018093160180901C0190901D01A090A2
:101170001E01B0901F0120E030E0A901C501B401BB
:101180000E948E0E811152C080E090E0A0E4B0E495
:1011900080931C0190931D01A0931E01B0931F0129
:1011A00096CC20E030E040E251E4C501B4010E9459
:1011B000361020E030E040E050E40E94220E6093C0
:1011C0001C0170931D0180931E0190931F017FCC21
:1011D00020E030E040E251E4C501B4010E94361045
:1011E00020E030E040EA50E40E94220E60931C01AF
:1011F00070931D0180931E0190931F0168CC20E025
:1012000030E040E251E4C501B4010E94361020E014
:1012100030E040E051E40E94220E60931C01709384
:101220001D0180931E0190931F0151CC20E030E0FE
:1012300040E251E4C501B4010E94361020E030E0E4
:1012400040E450E40E94220E60931C0170931D0143
:1012500080931E0190931F013ACCC73309F072C3EB
:10126000C0900001D0900101E0900201F0900301D4
:1012700023E333E343E35FE3CECCC633F1F5809160
:101280001601909117010196909317018093160112
:10129000C0901C01D0901D01E0901E01F0901F0134
:1012A00020E030E0A901C701B6010E948E0E811135
:1012B0000DC080E090E0A0ECB0E480931C0190931E
:1012C0001D01A0931E01B0931F01D6CC20E030E099
:1012D00040E251E4C701B6010E94361020E030E040
:1012E00040EC50E40E94220E60931C0170931D019B
:1012F00080931E0190931F01BFCCC933F1F58091FB
:101300001601909117010196909317018093160191
:10131000C0901C01D0901D01E0901E01F0901F01B3
:1013200020E030E0A901C701B6010E948E0E8111B4
:101330000DC080E090E0A0E1B1E480931C019093A7
:101340001D01A0931E01B0931F0196CC20E030E058
:1013500040E251E4C701B6010E94361020E030E0BF
:1013600040E151E40E94220E60931C0170931D0124
:1013700080931E0190931F017FCCCE3209F4E3CC01
:10138000C33709F084C0809118019091190100972A
:1013900009F435C2019709F06FCC0E9407058091CE
:1013A0000A0190910B01892B09F486C22091120148
:1013B000309113018091160190911701820F931FB4
:1013C00097FD12C0C0E0D0E00E9407052196209151
:1013D0001601309117018091120190911301820F33
:1013E000931F8C179D0784F780911C0190911D011C
:1013F000A0911E01B0911F018093210190932201C1
:10140000A0932301B0932401289A83E50E947B00D6
:10141000289A89E60E947B00289A8EE60E947B002B
:10142000289A88E20E947B0060911C0170911D0146
:1014300080911E0190911F010E94ED000E94B70053
:10144000289A89E20E947B002BED3FE049E450E4BA
:1014500060912101709122018091230190912401DA
:101460000E94361020E030E044E353E40E94980EDE
:101470000E94A31060931C0170931D0180931E01B4
:1014800090931F011092190110921801F5CBCF36DD
:1014900009F084C08091180190911901009709F416
:1014A00051C1019709F0E8CB0E94070580910A011C
:1014B00090910B01892B09F429C2209112013091DE
:1014C00013018091160190911701820F931F97FDD0
:1014D00012C0C0E0D0E00E940705219620911601BD
:1014E000309117018091120190911301820F931F87
:1014F0008C179D0784F780911C0190911D01A0918C
:101500001E01B0911F018093210190932201A093AD
:101510002301B0932401289A83E40E947B00289A37
:101520008FE60E947B00289A83E70E947B00289A1E
:1015300088E20E947B0060911C0170911D018091E6
:101540001E0190911F010E94ED000E94B700289A91
:1015500089E20E947B002BED3FE049E450E460917A
:1015600021017091220180912301909124010E9418
:10157000361020E030E044E353E40E94980E0E94CD
:10158000930E60931C0170931D0180931E01909334
:101590001F0110921901109218016ECBC23709F089
:1015A000CAC18091180190911901009709F475C082
:1015B000019709F061CB0E94070580910A01909183
:1015C0000B01892B09F48DC120911601309117016F
:1015D0008091120190911301820F931F97FD12C009
:1015E000C0E0D0E00E9407052196209116013091BD
:1015F00017018091120190911301820F931F8C1794
:101600009D0784F780911C0190911D01A0911E01FE
:10161000B0911F018093210190932201A093230197
:10162000B0932401289A83E50E947B00289A81E7E1
:101630000E947B00289A82E70E947B00289A84E718
:101640000E947B00289A88E20E947B0060911C0126
:1016500070911D0180911E0190911F010E94ED006B
:101660000E94B700289A89E20E947B0060912101C4
:101670007091220180912301909124010E94B11068
:1016800060931C0170931D0180931E0190931F01B4
:101690001092190110921801EFCA289881E00E9457
:1016A0007B008FED9EE20197F1F700C00000809172
:1016B0001C0190911D01A0911E01B0911F0180930A
:1016C000270190932801A0932901B0932A01289A19
:1016D00083E50E947B00289A81E70E947B00289A7C
:1016E00082E70E947B00289A84E70E947B00289A68
:1016F00088E20E947B0060911C0170911D01809125
:101700001E0190911F010E94ED000E94B700289ACF
:1017100089E20E947B0060912701709128018091ED
:10172000290190912A010E94B11060931C017093CD
:101730001D0180931E0190931F01809118019091CB
:10174000190136CF289881E00E947B008FED9EE240
:101750000197F1F700C0000080911C0190911D01DC
:10176000A0911E01B0911F01809327019093280141
:10177000A0932901B0932A01289A83E40E947B0058
:10178000289A8FE60E947B00289A83E70E947B00BC
:10179000289A88E20E947B0060911C0170911D01D3
:1017A00080911E0190911F010E94ED000E94B700E0
:1017B000289A89E20E947B002BED3FE049E450E447
:1017C00060912701709128018091290190912A014F
:1017D0000E94361020E030E044E353E40E94980E6B
:1017E0000E94930E60931C0170931D0180931E0153
:1017F00090931F01809118019091190152CE289861
:1018000081E00E947B008FED9EE20197F1F700C01E
:10181000000080911C0190911D01A0911E01B091CA
:101820001F018093270190932801A0932901B09371
:101830002A01289A83E50E947B00289A89E60E9463
:101840007B00289A8EE60E947B00289A88E20E94FC
:101850007B0060911C0170911D0180911E0190918F
:101860001F010E94ED000E94B700289A89E20E94A1
:101870007B002BED3FE049E450E46091270170913B
:1018800028018091290190912A010E94361020E0C0
:1018900030E044E353E40E94980E0E94A31060934A
:1018A0001C0170931D0180931E0190931F01809174
:1018B0001801909119016ECD809116019091170138
:1018C000181619060CF090CDC0E0D0E00E94070574
:1018D00021968091160190911701C817D907B4F38A
:1018E00083CD8091160190911701181619060CF0FE
:1018F00089CEC0E0D0E00E940705219680911601B4
:1019000090911701C817D907B4F37CCE80911601C6
:1019100090911701181619060CF0EDCDC0E0D0E03B
:101920000E94070521968091160190911701C81712
:10193000D907B4F3E0CDCB3209F4CCC8CD3209F4E9
:10194000C9C8C5C8C83369F4C0900001D09001016E
:10195000E0900201F09003012DEC3CEC4CE45FE3DD
:101960005AC9C93369F4C0900001D0900101E090D8
:101970000201F090030126E636E646E65FE34BC936
:10198000C03369F42DEC3CEC4CEC5DE3609100015C
:101990007091010180910201909103015AC9CD33E8
:1019A00009F4DAC8EDCCCF92DF92EF92FF92CF9399
:1019B000DF936B017C0180910A0190910B01892BCF
:1019C00019F5C701B6010E940A0F6115710551F0A2
:1019D0002AE030E02196CB01B9010E944111611546
:1019E0007105C1F7CE01DF91CF91FF90EF90DF90AD
:1019F000CF90089520E030E040E251E4C701B60105
:101A00000E9436106B017C0120E030E0A901C70183
:101A1000B6010E948E0E87FDEDCFC701B6010E9470
:101A20000A0F61157105F1F22AE030E02196CB0131
:101A3000B9010E94411161157105C1F7CE01DF9115
:101A4000CF91FF90EF90DF90CF9008958FEF84B902
:101A50001AB887B98BB90E948D008EE6B82ECC24B7
:101A6000C394D12CB09226010E948E03C82F80937C
:101A700026018E36C9F3D82F80ED8C0F8A3010F5F1
:101A800080910A0190910B01892B09F077C086E2C1
:101A900091E00E94CB129093150180931401C256DD
:101AA000C23020F0289A8D2F0E947B000E941305DF
:101AB0009FEF29E688E1915020408040E1F700C087
:101AC0000000D0CFC33659F780910C0190910D01E1
:101AD000892BD1F580910A0190910B01892B09F096
:101AE0007BC00E9407056091140170911501072EBB
:101AF000000C880B990B0E94420F9B01AC01609176
:101B00001C0170911D0180911E0190911F010E9486
:101B1000210E20E030E040E251E40E94980E6093F4
:101B20001C0170931D0180931E0190931F018091F1
:101B30001601909117010197909317018093160158
:101B4000D0920D01C0920C012FEF83ED90E3215054
:101B500080409040E1F700C000000E948E03809317
:101B60002601833609F45EC0D82F9EE9980F923083
:101B700008F49CCF8E3609F499CF94CF86E291E099
:101B80000E94CB12BC01990F880B990B0E94420F47
:101B900060930E0170930F018093100190931101D7
:101BA000E0901201F0901301F7FC79CF00E010E013
:101BB0002DEC3CEC4CEC5DE30E9436100F5F1F4FA8
:101BC000E016F106ACF760930E0170930F0180935D
:101BD00010019093110163CF0E94070520910E011F
:101BE00030910F01409110015091110160911C0141
:101BF00070911D0180911E0190911F010E94210E84
:101C000060931C0170931D0180931E0190931F012E
:101C10008091120190911301019790931301809389
:101C200012018ECF289881E00E947B008FED9EE20A
:101C30000197F1F700C000000E944704809126013F
:101C400093CF5058BB27AA270E94390E0C94E30F5C
:101C50000E94AA0F38F00E94B10F20F039F49F3F84
:101C600019F426F40C94A70F0EF4E095E7FB0C94FE
:101C7000A10FE92F0E94081058F3BA1762077307E3
:101C80008407950720F079F4A6F50C942A100EF439
:101C9000E0950B2EBA2FA02D0B01B90190010C017C
:101CA000CA01A0011124FF27591B99F0593F50F494
:101CB000503E68F11A16F040A22F232F342F4427EC
:101CC000585FF3CF469537952795A795F0405395E4
:101CD000C9F77EF41F16BA0B620B730B840BBAF0B4
:101CE0009150A1F0FF0FBB1F661F771F881FC2F71F
:101CF0000EC0BA0F621F731F841F48F48795779533
:101D00006795B795F7959E3F08F0B0CF9395880FEC
:101D100008F09927EE0F9795879508950E947D0FFB
:101D200008F481E008950E94BA0FE3950C94F40F33
:101D30000E94AC0E0C94E30F0E94B10F58F00E9469
:101D4000AA0F40F029F45F3F29F00C94A10F511124
:101D50000C942B100C94A70F0E94081068F3992381
:101D6000B1F3552391F3951B550BBB27AA27621797
:101D70007307840738F09F5F5F4F220F331F441FA4
:101D8000AA1FA9F335D00E2E3AF0E0E832D09150D8
:101D90005040E695001CCAF72BD0FE2F29D0660FC5
:101DA000771F881FBB1F261737074807AB07B0E808
:101DB00009F0BB0B802DBF01FF2793585F4F3AF00E
:101DC0009E3F510578F00C94A10F0C942B105F3FAF
:101DD000E4F3983ED4F3869577956795B795F79594
:101DE0009F5FC9F7880F911D9695879597F908957C
:101DF000E1E0660F771F881FBB1F62177307840718
:101E0000BA0720F0621B730B840BBA0BEE1F88F726
:101E1000E09508950E94110F6894B1110C942B1055
:101E200008950E94101088F09F5798F0B92F9927B5
:101E3000B751B0F0E1F0660F771F881F991F1AF0B5
:101E4000BA95C9F714C0B13091F00E942A10B1E0E0
:101E500008950C942A10672F782F8827B85F39F0DF
:101E6000B93FCCF3869577956795B395D9F73EF44E
:101E700090958095709561957F4F8F4F9F4F0895F6
:101E8000E89409C097FB3EF4909580957095619514
:101E90007F4F8F4F9F4F9923A9F0F92F96E9BB27CA
:101EA0009395F695879577956795B795F111F8CF46
:101EB000FAF4BB0F11F460FF1BC06F5F7F4F8F4FB1
:101EC0009F4F16C0882311F096E911C0772321F0A7
:101ED0009EE8872F762F05C0662371F096E8862F3F
:101EE00070E060E02AF09A95660F771F881FDAF796
:101EF000880F9695879597F90895990F0008550FC3
:101F0000AA0BE0E8FEEF16161706E807F907C0F07F
:101F100012161306E407F50798F0621B730B840B87
:101F2000950B39F40A2661F0232B242B252B21F461
:101F300008950A2609F4A140A6958FEF811D811D01
:101F4000089597F99F6780E870E060E008959FEF3B
:101F500080EC089500240A94161617061806090640
:101F6000089500240A94121613061406050608950F
:101F70000C94A70F0E941010D8F3E894E0E0BB2760
:101F80009F57F0F02AED3FE049EC06C0EE0FBB0F83
:101F9000661F771F881F28F0B23A6207730784070D
:101FA00028F0B25A620B730B840BE3959A9572F783
:101FB000803830F49A95BB0F661F771F881FD2F7C1
:101FC00090480C94F310092E0394000C11F488230C
:101FD00052F0BB0F40F4BF2B11F460FF04C06F5FE1
:101FE0007F4F8F4F9F4F0895EF93E0FF07C0A2EA06
:101FF0002AED3FE049EC5FEB0E94390E0E94E30FAF
:102000000F90039401FC9058E8E6F0E00C94061160
:1020100057FD9058440F551F59F05F3F71F0479599
:10202000880F97FB991F61F09F3F79F0879508957E
:10203000121613061406551FF2CF4695F1DF08C09D
:10204000161617061806991FF1CF869571056105BA
:1020500008940895E894BB2766277727CB0197F962
:1020600008950E947D0F08F48FEF08950E94491093
:102070000C94E30F0E94AA0F38F00E94B10F20F0D9
:10208000952311F00C94A10F0C94A70F11240C941C
:102090002B100E94081070F3959FC1F3950F50E02C
:1020A000551F629FF001729FBB27F00DB11D639F0A
:1020B000AA27F00DB11DAA1F649F6627B00DA11DB0
:1020C000661F829F2227B00DA11D621F739FB00D56
:1020D000A11D621F839FA00D611D221F749F3327C6
:1020E000A00D611D231F849F600D211D822F762F5F
:1020F0006A2F11249F5750409AF0F1F088234AF03C
:10210000EE0FFF1FBB1F661F771F881F91505040A7
:10211000A9F79E3F510580F00C94A10F0C942B1051
:102120005F3FE4F3983ED4F3869577956795B7952E
:10213000F795E7959F5FC1F7FE2B880F911D969548
:10214000879597F908959F930E94BA0F0F9007FC07
:10215000EE5F0C94F40F19F416F40C94A70F0C9482
:10216000F1100E941010B8F39923C9F3B6F39F57EA
:10217000550B87FF0E94FF100024A0E640EA900163
:1021800080585695979528F4805C660F771F881FB6
:1021900020F026173707480730F4621B730B840BB7
:1021A000202931294A2BA6951794079420253125FB
:1021B0004A2758F7660F771F881F20F02617370722
:1021C000480730F4620B730B840B200D311D411D49
:1021D000A09581F7B901842F9158880F969587951E
:1021E00008959F3F31F0915020F48795779567953A
:1021F000B795880F911D9695879597F908959150F9
:102200005040660F771F881FD2F708959F938F93D2
:102210007F936F93FF93EF939B01AC010E94361065
:10222000EF91FF910E941A112F913F914F915F9171
:102230000C943610DF93CF931F930F93FF92EF927E
:10224000DF927B018C01689406C0DA2EEF010E94B8
:102250004910FE01E894A59125913591459155913C
:10226000A6F3EF010E94390EFE019701A801DA944E
:1022700069F7DF90EF90FF900F911F91CF91DF9161
:10228000089597FB072E16F4009407D077FD09D028
:102290000E94741107FC05D03EF4909581959F4FE4
:1022A0000895709561957F4F0895052E97FB1EF454
:1022B00000940E946C1157FD07D00E94881107FC02
:1022C00003D04EF40C946C115095409530952195A7
:1022D0003F4F4F4F5F4F0895909580957095619552
:1022E0007F4F8F4F9F4F0895AA1BBB1B51E107C023
:1022F000AA1FBB1FA617B70710F0A61BB70B881F96
:10230000991F5A95A9F780959095BC01CD01089524
:10231000A1E21A2EAA1BBB1BFD010DC0AA1FBB1FE9
:10232000EE1FFF1FA217B307E407F50720F0A21B5B
:10233000B30BE40BF50B661F771F881F991F1A94C8
:1023400069F760957095809590959B01AC01BD01F2
:10235000CF0108950F931F93CF93DF9382309105A0
:1023600010F482E090E0E0912D01F0912E0120E048
:1023700030E0A0E0B0E0309719F140815181028156
:10238000138148175907C8F08417950769F4109707
:1023900031F012960C93129713961C9327C000935A
:1023A0002D0110932E0122C02115310519F042177D
:1023B000530718F49A01BD01EF01DF01F801DBCFEB
:1023C00021153105F9F0281B390B2430310580F433
:1023D0008A819B816115710521F0FB0193838283C2
:1023E00004C090932E0180932D01FE01329644C0CB
:1023F000FE01E20FF31F819391932250310939833B
:1024000028833AC020912B0130912C01232B41F4D9
:10241000209106013091070130932C0120932B016C
:1024200020910401309105012115310541F42DB7AA
:102430003EB74091080150910901241B350BE091F2
:102440002B01F0912C01E217F307A0F42E1B3F0B98
:102450002817390778F0AC014E5F5F4F2417350716
:1024600048F04E0F5F1F50932C0140932B01819336
:10247000919302C0E0E0F0E0CF01DF91CF911F9196
:102480000F910895CF93DF93009709F481C0FC0169
:10249000329713821282A0912D01B0912E011097D4
:1024A00081F420813181820F931F20912B01309183
:1024B0002C012817390751F5F0932C01E0932B01DB
:1024C00067C0ED0120E030E0CE17DF0740F44A811D
:1024D0005B819E0141155105F1F0EA01F5CFD383EF
:1024E000C28340815181840F951FC817D90759F4C1
:1024F00088819981840F951F0296918380838A81B8
:102500009B81938382832115310529F4F0932E0159
:10251000E0932D013DC0E901FB83EA834991599184
:10252000C40FD51FEC17FD0761F480819181840FE2
:10253000951F0296E90199838883828193819B8309
:102540008A83E0E0F0E012968D919C9113970097BA
:1025500019F0FD01DC01F7CF8D919C9111979D0140
:102560002E5F3F4F820F931F20912B0130912C0142
:102570002817390769F4309729F410922E01109228
:102580002D0102C013821282B0932C01A0932B0163
:10259000DF91CF910895FC0188279927E894219134
:1025A0002032E9F3293010F02E30C8F32B3241F0FD
:1025B0002D3239F4689404C00E94F412820F911DE8
:1025C000219120532A30C0F31EF4909581959F4F9E
:1025D0000895BB274A3031F4992322F4BDE2909547
:1025E00081959F4F0C94FD127AE0979F902D879FC5
:1025F000802D910D11240895BB27FB015527AA2793
:10260000880F991FAA1FA41710F0A41B839550517F
:10261000B9F7A05DAA3308F0A95DA193009779F7F7
:10262000B111B1931192CB010C941613DC01FC0192
:10263000672F71917723E1F7329704C07C916D93F6
:1026400070836291AE17BF07C8F30895F894FFCF67
:0A2650000000803F00002F01200071
:00000001FF
